:1000000012C051C050C04FC04EC04DC04CC04BC0BC
:100010004AC049C048C047C046C045C044C043C0AC
:1000200042C041C040C011241FBECFE5D4E0DEBFB6
:0A003000CDBF20D000C0F894FFCF30
:10003A00442361F021E030E002C0220F331F6A95A9
:10004A00E2F7FC013081232B20830CC021E030E051
:10005A0002C0220F331F6A95E2F72095FC01308116
:0A006A002323208380E090E0089536
:1000740083E087BB80E384BB11BA80B380B380B3D1
:1000840080B380B380B340B380B383B383B383B30B
:1000940083B342FB442740F964E085E390E0CBDF7F
:0200A400ECCF9F
:0200A600ACCFDD
:00000001FF
